:100000000C9461000C9489000C9489000C94890074
:100010000C9489000C9489000C9489000C9489003C
:100020000C9489000C9489000C9489000C9489002C
:100030000C9489000C9489000C9489000C9489001C
:100040000C944B050C9489000C94BB050C949505FD
:100050000C9489000C9489000C9489000C948900FC
:100060000C9489000C9489005A7375744574686502
:10007000726E65745544503A3A626567696E5061B4
:10008000636B657428636F6E73742063686172209C
:100090002A686F73742C2075696E7431365F742012
:1000A000706F7274293B206973206E6F74207375B2
:1000B00070706F727465642120536F7272792100C1
:1000C000ED0511241FBECFEFD8E0DEBFCDBF11E09C
:1000D000A0E0B1E0EAEEFDE002C005900D92AC3E7A
:1000E000B107D9F722E0ACEEB1E001C01D92AF3DFF
:1000F000B207E1F710E0C1E6D0E004C02197FE01AD
:100100000E94ED06C036D107C9F70E9475060C940F
:10011000F3060C94000008953FB7F8948091F10124
:100120009091F201A091F301B091F40126B5A89B42
:1001300005C02F3F19F00196A11DB11D3FBFBA2F79
:10014000A92F982F8827BC01CD01620F711D811D39
:10015000911D42E0660F771F881F991F4A95D1F7BE
:1001600008958F929F92AF92BF92CF92DF92EF92BB
:10017000FF924B015C010E948C006B017C010E948C
:100180008C006C197D098E099F09683E73408105BA
:100190009105A8F321E0821A9108A108B10888EE20
:1001A000C80E83E0D81EE11CF11C81149104A10447
:1001B000B10429F7FF90EF90DF90CF90BF90AF9000
:1001C0009F908F900895AF92BF92CF92DF92EF925F
:1001D000FF920F931F93CF93DF936C017B018B01F1
:1001E000040F151FEB015E01AE18BF08C017D10741
:1001F00059F06991D601ED91FC910190F081E02DCB
:10020000C6010995892B79F7C501DF91CF911F911F
:100210000F91FF90EF90DF90CF90BF90AF90089537
:10022000FC01538D448D252F30E0842F90E0821BFC
:10023000930B541710F0CF96089501970895FC0181
:10024000918D828D981761F0A28DAE0FBF2FB11DD9
:100250005D968C91928D9F5F9F73928F90E0089531
:100260008FEF9FEF0895FC01918D828D981731F0EB
:10027000828DE80FF11D858D90E008958FEF9FEF3F
:100280000895FC01918D228D892F90E0805C9F4F15
:10029000821B91098F739927089585EF91E00E9441
:1002A000410121E0892B09F420E0822F089580E0AC
:1002B00090E0892B29F00E944D0181110C940000DF
:1002C0000895FC01A48DA80FB92FB11DA35ABF4FEB
:1002D0002C91848D90E001968F739927848FA68945
:1002E000B7892C93A089B1898C91837080648C9399
:1002F000938D848D981306C00288F389E02D808148
:100300008F7D80830895EF92FF920F931F93CF9379
:10031000DF93EC0181E0888F9B8D8C8D98131AC040
:10032000E889F989808185FF15C09FB7F894EE8927
:10033000FF896083E889F989808183708064808384
:100340009FBF81E090E0DF91CF911F910F91FF90CF
:10035000EF900895F62E0B8D10E00F5F1F4F0F7377
:100360001127E02E8C8D8E110CC00FB607FCFACF32
:10037000E889F989808185FFF5CFCE010E9461016E
:10038000F1CFEB8DEC0FFD2FF11DE35AFF4FF08203
:100390009FB7F8940B8FEA89FB8980818062CFCF69
:1003A000CF93DF93EC01888D8823B9F0AA89BB89AC
:1003B000E889F9898C9185FD03C0808186FD0DC097
:1003C0000FB607FCF7CF8C9185FFF2CF808185FFB8
:1003D000EDCFCE010E946101E9CFDF91CF91089569
:1003E00081E0089587E08CBF95EE9BBF1ABE8CBF5D
:1003F00086EE8BBF1ABE089590E080E0089597E0E6
:100400009CBF87EE8BBF2AB79CBF88EE8BBF8AB795
:10041000322F282F9CBF85EE8BBF8AB79CBF96EEEC
:100420009BBF9AB7892798278927821B930B481768
:10043000590708F4CA01A9014751584FFB01DB01D4
:10044000A80FB91FEA17FB0739F05CBF4BBF6AB7AB
:1004500061934F5F5F4FF6CF280F391F47E04CBFC6
:1004600057EE5BBF3ABF4CBF38EE3BBF2ABF089583
:10047000CF93DF931F92CDB7DEB7DC01ED91FC91F6
:10048000028CF38DE02D41E050E0BE016F5F7F4FA5
:1004900009951816190634F4898190E00F90DF91C0
:1004A000CF9108958FEF9FEFF9CFFC0197E09CBFAC
:1004B00085EE8BBF8AB79CBF26EE2BBF6AB79CBF69
:1004C00027EE2BBF2AB79CBF98EE9BBF3AB71CBE46
:1004D00090E19BBF9AB71CBE4FE04BBF4AB71CBE12
:1004E0005EE05BBF5AB71CBE7DE07BBF7AB7708B06
:1004F000518B428B938B1CBE91E19BBF4AB71CBEB4
:1005000092E19BBF9AB7542F492F558B448B982F5C
:10051000862F232732272327821B930B08951CBE87
:1005200083E18BBF8AB71CBE94E19BBF9AB7892732
:1005300098278927FB019C012B5E3F4FDB01A40F0D
:10054000B51FEA17FB0739F061913CBF2BBF6ABFAB
:100550002F5F3F4FF6CF480F591F1CBE83E18BBF63
:100560005ABF1CBE84E18BBF4ABF90E080E0089573
:10057000CF93DF931F92CDB7DEB76983DC01ED9196
:10058000FC910280F381E02D41E050E0BE016F5FFD
:100590007F4F09950F90DF91CF9108951CBE1BBE30
:1005A0008FEF8ABF1CBE1BBE82E08ABF90E080E056
:1005B0000895FB0132812381948185811CBE1BBE7D
:1005C00061E06ABF1CBE6DE06BBF3ABF1CBE3EE07F
:1005D0003BBF2ABF1CBE2FE02BBF9ABF1CBE90E1C1
:1005E0009BBF8ABF1CBE81E18BBF5ABF1CBE82E18C
:1005F0008BBF4ABF81E090E008950895DC01ED9142
:10060000FC91008CF18DE02D09941CBE8BE08BBF1A
:100610007ABF1CBE8CE08BBF6ABF1CBE1BBE83E0D2
:100620008ABF81E00895FC018489958908952EE3AD
:1006300031E0FC0131832083FB01408951896289CB
:100640007389FC0142835383648375830895DC01BD
:10065000ED91FC91028CF38DE02D099490E080E007
:100660000895FB0101900020E9F73197AF01461B87
:10067000570BDC01ED91FC910280F381E02D099490
:100680008F929F92AF92BF92EF92FF920F931F9320
:10069000CF93DF93CDB7DEB7A1970FB6F894DEBF47
:1006A0000FBECDBF7C01FA01CB0119A2223008F4A4
:1006B0002AE08E010F5D1F4F822E912CB12CA12CB0
:1006C000BF01A50194010E94CB06F901CA016A305D
:1006D0000CF5605DD8016E938D01232B242B252B07
:1006E00079F790E080E0109721F0BD01C7010E94EA
:1006F0003103A1960FB6F894DEBF0FBECDBFDF91D8
:10070000CF911F910F91FF90EF90BF90AF909F906E
:100710008F900895695CDECFCF93DF93BC0185EFA6
:1007200091E00E943103EC0160E471E085EF91E01B
:100730000E9431038C0F9D1FDF91CF910895CF93BD
:10074000DF93C8E6D0E0FE016491662339F085EFBF
:1007500091E00E9483012196892BA9F760E471E062
:1007600085EF91E00E943103989590E080E0DF9161
:10077000CF9108958F929F92AF92BF92CF92DF92C6
:10078000EF92FF920F931F93CF93DF937C01EB01C6
:100790006C0182E0C80ED11C4701E5E08E0E911C71
:1007A00010E000E0F60141916F0150E070E060E080
:1007B0002AE0CE010E9440035C01E881F9810190AA
:1007C000F081E02D6EE2CE0109958A0D9B1D080F88
:1007D000191FC814D90431F7F701458150E070E0C2
:1007E00060E02AE0CE010E944003800F911FDF915C
:1007F000CF911F910F91FF90EF90DF90CF90BF901E
:10080000AF909F908F900895CF92DF92EF92FF92DA
:100810000F931F93CF93DF93CDB7DEB7C75ED5405D
:100820000FB6F894DEBF0FBECDBFE0910502F09188
:10083000060282E08083E0910102F09102021082C0
:10084000E0910302F091040280E1808310920D0296
:10085000E0910902F0910A0286E08083E0910702AC
:10086000F0910802808180618083E0910702F0911D
:100870000802808188608083E0910702F09108027D
:10088000808180688083E0910702F0910802808176
:100890008F7D808383E491E00E948C0368EE73E097
:1008A00080E090E00E94B10060E573EC82EB92E0A2
:1008B0000E94050381110BC08BE591E00E948C031F
:1008C00068EE73E080E090E00E94B100F9CF81E42F
:1008D0009CE4C352DA4F99838883CD5DD54081E093
:1008E000C152DA4F8883CF5DD540C052DA4F1982AA
:1008F0001882C05ED54080E090E0A0E0B1E0CE512B
:10090000DA4F88839983AA83BB83C25ED540CA51DC
:10091000DA4F19821882C65ED5406DE671E085EF28
:1009200091E00E94310365EF71E08DEC92E00E944E
:10093000BA0363E871E085EF91E00E9431032AE099
:1009400040EA5FE060E070E085EF91E00E944003E4
:1009500060E471E085EF91E00E9431038EE391E065
:100960009A83898380EC8B8388EA8C8388E38D83E8
:1009700087E68E8340EA5FE0BE016F5F7F4F82EBC8
:1009800092E00E94D9024BE050E0BE0163527A4FE0
:1009900082EB92E00E948F0282EB92E00E94CE02F4
:1009A00085E891E00E948C038FB7F894C090ED0128
:1009B000D090EE01E090EF01F090F0018FBF2FB7E3
:1009C000F8948091ED019091EE01A091EF01B0912A
:1009D000F0012FBF8C199D09AE09BF09883B9B40D0
:1009E000A105B10508F054C082EB92E00E945502C7
:1009F000181619060CF045C04CED55E0BE016F5FAE
:100A00007F4F82EB92E00E94FF010D97C4F2898133
:100A10009A8181349C4499F68B81823091F58C8146
:100A20009D818115924069F50C851D851027012750
:100A3000102764E971E085EF91E00E943103A8017D
:100A400070E060E02AE085EF91E00E94400360E4FE
:100A500071E085EF91E00E94310387EB91E00E9405
:100A60008C03C951DA4F0FB6F894DEBF0FBECDBF6D
:100A7000DF91CF911F910F91FF90EF90DF90CF907A
:100A8000089562E370E080E090E00E94B10097CFAB
:100A900088ED91E0E4CF1F920F920FB60F921124D0
:100AA0002F933F938F939F93AF93BF938091ED01CB
:100AB0009091EE01A091EF01B091F0013091EC0125
:100AC00023E0230F2D3758F50196A11DB11D20936A
:100AD000EC018093ED019093EE01A093EF01B093B0
:100AE000F0018091F1019091F201A091F301B09198
:100AF000F4010196A11DB11D8093F1019093F201C3
:100B0000A093F301B093F401BF91AF919F918F91A6
:100B10003F912F910F900FBE0F901F90189526E8D0
:100B2000230F0296A11DB11DD2CF1F920F920FB6B7
:100B30000F9211242F933F934F935F936F937F9363
:100B40008F939F93AF93BF93EF93FF9385EF91E0C4
:100B50000E946101FF91EF91BF91AF919F918F91A1
:100B60007F916F915F914F913F912F910F900FBEA9
:100B70000F901F9018951F920F920FB60F9211248D
:100B80002F938F939F93EF93FF93E0910502F09142
:100B900006028081E0910B02F0910C0282FD1BC0E5
:100BA000908180910E028F5F8F7320910F028217C8
:100BB00041F0E0910E02F0E0EB50FE4F958F8093F4
:100BC0000E02FF91EF919F918F912F910F900FBE89
:100BD0000F901F9018958081F4CFE5EFF1E013821C
:100BE000128248EE53E060E070E0448355836683F0
:100BF000778384E091E09183808385EC90E0958712
:100C0000848784EC90E09787868780EC90E0918BD6
:100C1000808B81EC90E0938B828B82EC90E0958BC3
:100C2000848B86EC90E0978B868B118E128E138EC0
:100C3000148EE2E9F2E08EE391E0918380831282E8
:100C4000138214821582E0EAF2E09183808312829B
:100C5000138214821582E8E9F2E091838083128284
:100C6000138214821582E6EAF2E091838083128275
:100C7000138214821582ECEAF2E09183808312825F
:100C8000138214821582E9EDF2E09183808312824F
:100C9000138214821582E3EDF2E091838083A0EC4D
:100CA000A28338EA338328E32483B8E6B583EDECE6
:100CB000F2E091838083A2833383248327E6258314
:100CC000E2EBF2E0138212824483558366837783DA
:100CD00026E131E03183208397878687108A118A45
:100CE000128A138A84E0808F0895789484B5826094
:100CF00084BD84B5816084BD85B5826085BD85B5C0
:100D0000816085BD80916E00816080936E0010923D
:100D100081008091810082608093810080918100B8
:100D20008160809381008091800081608093800049
:100D30008091B10084608093B1008091B0008160A7
:100D40008093B00080917A00846080937A008091D3
:100D50007A00826080937A0080917A00816080932B
:100D60007A0080917A00806880937A001092C100A6
:100D70000E940404C0E0D0E068EE73E080E090E000
:100D80000E94B1002097C1F30E944D018823A1F376
:100D90000E940000F1CFA1E21A2EAA1BBB1BFD018D
:100DA0000DC0AA1FBB1FEE1FFF1FA217B307E4074A
:100DB000F50720F0A21BB30BE40BF50B661F771FA2
:100DC000881F991F1A9469F7609570958095909582
:100DD0009B01AC01BD01CF010895EE0FFF1F0590EF
:0A0DE000F491E02D0994F894FFCF80
:100DEA00000000008301E3001001D00141011F014E
:100DFA00330100000000B8028F022E03F201FE0246
:100E0A003802FC010503FD02D9029F03CE025502F6
:100E1A00FF01270317031303F00100000000BA03C0
:100E2A000D0A00414C5020706C6F74746572207307
:100E3A0074617274696E672E2E2E005544502062BA
:100E4A006567696E206661696C6564210053656E29
:100E5A0064696E67204C4F47494E5F524551207472
:100E6A006F20003A004C4F47494E5F52455120735C
:100E7A00656E74005265636569766564204C4F47F8
:100E8A00494E5F41434B2C2061737369676E6564F9
:100E9A00204944203D2000506C6F747465722072A2
:100EAA0065676973746572656420737563636573D6
:100EBA007366756C6C792E004C4F47494E5F4143FF
:0C0ECA004B2074696D656F757421000089
:00000001FF
