:020000040000FA
:100000000C9461000C9489000C9489000C94890074
:100010000C9489000C9489000C9489000C9489003C
:100020000C9489000C9489000C9489000C9489002C
:100030000C9489000C9489000C9489000C9489001C
:100040000C9402090C9489000C9472090C944C09CC
:100050000C9489000C9489000C9489000C948900FC
:100060000C9489000C9489005A7375744574686502
:10007000726E65745544503A3A626567696E5061B4
:10008000636B657428636F6E73742063686172209C
:100090002A686F73742C2075696E7431365F742012
:1000A000706F7274293B206973206E6F74207375B2
:1000B00070706F727465642120536F7272792100C1
:1000C000A40911241FBECFEFD8E0DEBFCDBF12E0E0
:1000D000A0E0B1E0EAE6F5E102C005900D92A83299
:1000E000B107D9F727E0A8E2B2E001C01D92A7321C
:1000F000B207E1F710E0C1E6D0E004C02197FE01AD
:100100000E94A00AC036D107C9F70E942C0A0C949D
:10011000B30A0C94000008953FB7F8948091390613
:1001200090913A06A0913B06B0913C0626B5A89B5B
:1001300005C02F3F19F00196A11DB11D3FBFBA2F79
:10014000A92F982F8827BC01CD01620F711D811D39
:10015000911D42E0660F771F881F991F4A95D1F7BE
:1001600008958F929F92AF92BF92CF92DF92EF92BB
:10017000FF924B015C010E948C006B017C010E948C
:100180008C006C197D098E099F09683E73408105BA
:100190009105A8F321E0821A9108A108B10888EE20
:1001A000C80E83E0D81EE11CF11C81149104A10447
:1001B000B10429F7FF90EF90DF90CF90BF90AF9000
:1001C0009F908F900895AF92BF92CF92DF92EF925F
:1001D000FF920F931F93CF93DF936C017B018B01F1
:1001E000040F151FEB015E01AE18BF08C017D10741
:1001F00059F06991D601ED91FC910190F081E02DCB
:10020000C6010995892B79F7C501DF91CF911F911F
:100210000F91FF90EF90DF90CF90BF90AF90089537
:10022000FC01538D448D252F30E0842F90E0821BFC
:10023000930B541710F0CF96089501970895FC0181
:10024000918D828D981761F0A28DAE0FBF2FB11DD9
:100250005D968C91928D9F5F9F73928F90E0089531
:100260008FEF9FEF0895FC01918D828D981731F0EB
:10027000828DE80FF11D858D90E008958FEF9FEF3F
:100280000895FC01918D228D892F90E0805C9F4F15
:10029000821B91098F73992708958DE396E00E9440
:1002A000410121E0892B09F420E0822F089580E0AC
:1002B00090E0892B29F00E944D0181110C940000DF
:1002C0000895FC01A48DA80FB92FB11DA35ABF4FEB
:1002D0002C91848D90E001968F739927848FA68945
:1002E000B7892C93A089B1898C91837080648C9399
:1002F000938D848D981306C00288F389E02D808148
:100300008F7D80830895EF92FF920F931F93CF9379
:10031000DF93EC0181E0888F9B8D8C8D98131AC040
:10032000E889F989808185FF15C09FB7F894EE8927
:10033000FF896083E889F989808183708064808384
:100340009FBF81E090E0DF91CF911F910F91FF90CF
:10035000EF900895F62E0B8D10E00F5F1F4F0F7377
:100360001127E02E8C8D8E110CC00FB607FCFACF32
:10037000E889F989808185FFF5CFCE010E9461016E
:10038000F1CFEB8DEC0FFD2FF11DE35AFF4FF08203
:100390009FB7F8940B8FEA89FB8980818062CFCF69
:1003A000CF93DF93EC01888D8823B9F0AA89BB89AC
:1003B000E889F9898C9185FD03C0808186FD0DC097
:1003C0000FB607FCF7CF8C9185FFF2CF808185FFB8
:1003D000EDCFCE010E946101E9CFDF91CF91089569
:1003E00081E0089587E08CBF95EE9BBF1ABE8CBF5D
:1003F00086EE8BBF1ABE089590E080E0089597E0E6
:100400009CBF87EE8BBF2AB79CBF88EE8BBF8AB795
:10041000322F282F9CBF85EE8BBF8AB79CBF96EEEC
:100420009BBF9AB7892798278927821B930B481768
:10043000590708F4CA01A9014751584FFB01DB01D4
:10044000A80FB91FEA17FB0739F05CBF4BBF6AB7AB
:1004500061934F5F5F4FF6CF280F391F47E04CBFC6
:1004600057EE5BBF3ABF4CBF38EE3BBF2ABF089583
:10047000CF93DF931F92CDB7DEB7DC01ED91FC91F6
:10048000028CF38DE02D41E050E0BE016F5F7F4FA5
:1004900009951816190634F4898190E00F90DF91C0
:1004A000CF9108958FEF9FEFF9CFFC0197E09CBFAC
:1004B00085EE8BBF8AB79CBF26EE2BBF6AB79CBF69
:1004C00027EE2BBF2AB79CBF98EE9BBF3AB71CBE46
:1004D00090E19BBF9AB71CBE4FE04BBF4AB71CBE12
:1004E0005EE05BBF5AB71CBE7DE07BBF7AB7708B06
:1004F000518B428B938B1CBE91E19BBF4AB71CBEB4
:1005000092E19BBF9AB7542F492F558B448B982F5C
:10051000862F232732272327821B930B08951CBE87
:1005200083E18BBF8AB71CBE94E19BBF9AB7892732
:1005300098278927FB019C012B5E3F4FDB01A40F0D
:10054000B51FEA17FB0739F061913CBF2BBF6ABFAB
:100550002F5F3F4FF6CF480F591F1CBE83E18BBF63
:100560005ABF1CBE84E18BBF4ABF90E080E0089573
:10057000CF93DF931F92CDB7DEB76983DC01ED9196
:10058000FC910280F381E02D41E050E0BE016F5FFD
:100590007F4F09950F90DF91CF9108951CBE1BBE30
:1005A0008FEF8ABF1CBE1BBE82E08ABF90E080E056
:1005B0000895FB0132812381948185811CBE1BBE7D
:1005C00061E06ABF1CBE6DE06BBF3ABF1CBE3EE07F
:1005D0003BBF2ABF1CBE2FE02BBF9ABF1CBE90E1C1
:1005E0009BBF8ABF1CBE81E18BBF5ABF1CBE82E18C
:1005F0008BBF4ABF81E090E008950895DC01ED9142
:10060000FC91008CF18DE02D09941CBE8BE08BBF1A
:100610007ABF1CBE8CE08BBF6ABF1CBE1BBE83E0D2
:100620008ABF81E00895FC018489958908952CE5AD
:1006300031E0FC0131832083FB01408951896289CB
:100640007389FC0142835383648375830895DC01BD
:10065000ED91FC91028CF38DE02D099490E080E007
:100660000895FB0101900020E9F73197AF01461B87
:10067000570BDC01ED91FC910280F381E02D099490
:100680008F929F92AF92BF92EF92FF920F931F9320
:10069000CF93DF93CDB7DEB7A1970FB6F894DEBF47
:1006A0000FBECDBF7C01FA01CB0119A2223008F4A4
:1006B0002AE08E010F5D1F4F822E912CB12CA12CB0
:1006C000BF01A50194010E947E0AF901CA016A30A6
:1006D0000CF5605DD8016E938D01232B242B252B07
:1006E00079F790E080E0109721F0BD01C7010E94EA
:1006F0003103A1960FB6F894DEBF0FBECDBFDF91D8
:10070000CF911F910F91FF90EF90BF90AF909F906E
:100710008F900895695CDECF8F929F92AF92BF92C7
:10072000CF92DF92EF92FF920F931F93CF93DF93BD
:100730007C01EB016C0182E0C80ED11C4701E5E0B1
:100740008E0E911C10E000E0F60141916F0150E027
:1007500070E060E02AE0CE010E9440035C01E88185
:10076000F9810190F081E02D6EE2CE0109958A0DAC
:100770009B1D080F191FC814D90431F7F7014581D3
:1007800050E070E060E02AE0CE010E944003800F5C
:10079000911FDF91CF911F910F91FF90EF90DF900C
:1007A000CF90BF90AF909F908F900895CF93DF939D
:1007B000BC018DE396E00E943103EC016EE571E02F
:1007C0008DE396E00E9431038C0F9D1FDF91CF9146
:1007D0000895CF92DF92EF92FF92CF93DF936C0157
:1007E000990FEE08FF08F7FE23C06DE28DE396E057
:1007F0000E948301EC0144275527BA014C195D0979
:100800006E097F092AE08DE396E00E944003C80F3D
:10081000D91F6EE571E08DE396E00E9431038C0FE5
:100820009D1FDF91CF91FF90EF90DF90CF900895C3
:100830002AE0B701A6018DE396E00E944003EC0197
:10084000E8CFCF93DF93C8E6D0E0FE016491662342
:1008500039F08DE396E00E9483012196892BA9F758
:100860006EE571E08DE396E00E943103989590E08B
:1008700080E0DF91CF910895CF92DF92EF92FF92C7
:100880000F931F93CF93DF93CDB7DEB7C25ED540F2
:100890000FB6F894DEBF0FBECDBFE0914D06F091CC
:1008A0004E0682E08083E0914906F0914A0610826C
:1008B000E0914B06F0914C0680E180831092550642
:1008C000E0915106F091520686E08083E0914F0658
:1008D000F0915006808180618083E0914F06F09115
:1008E0005006808188608083E0914F06F091500629
:1008F000808180688083E0914F06F091500680816E
:100900008F7D808381E691E00E94D60364EF71E0E1
:1009100080E090E00E94B10060E573EC8AEF96E021
:100920000E94050381110BC086E791E00E94D60367
:1009300068EE73E080E090E00E94B100F9CF81E4BE
:100940009CE49A83898381E08B831D821C8280E0F2
:1009500090E0A0E0B1E08E839F83A887B9871B86D3
:100960001A861D861C868CE591E0C352DA4F998366
:100970008883CD5DD5408091170790911807A0918D
:100980001907B0911A07C152DA4F88839983AA8355
:10099000BB83CF5DD54040EA5FE0BE0163527A4F32
:1009A0008AEF96E00E94D9024DE050E08E010F5F81
:1009B0001F4FB8018AEF96E00E948F028AEF96E0FF
:1009C0000E94CE0286E891E00E94D6038FB7F89489
:1009D000C0903506D0903606E0903706F090380685
:1009E0008FBF2FB7F8948091350690913606A0916D
:1009F0003706B09138062FBF8C199D09AE09BF0983
:100A0000883B9B40A105B10508F073C08AEF96E0D2
:100A10000E945502181619060CF064C04CED55E002
:100A2000B8018AEF96E00E94FF010D97D4F2898108
:100A30009A8181349C44A9F68C819D8198278927CD
:100A400098274C855D85542745275427F80130E0C9
:100A500020E0BF01601B710B6817790728F46585DA
:100A6000260F311D3196F5CF4217530709F0B9CF44
:100A70002B812230B9F50297A8F18E859F859827A2
:100A800089279827909329068093280668E971E0C2
:100A90008DE396E00E94310380912806909129060B
:100AA0000E94E90382E390E090932D0680932C0648
:100AB0008FE090E090932F0680932E0610923106DF
:100AC00010923006CE51DA4F0FB6F894DEBF0FBE4B
:100AD000CDBFDF91CF911F910F91FF90EF90DF90ED
:100AE000CF90089562E370E080E090E00E94B10052
:100AF00078CF89EA91E00E94D603D4CF1F93CF9399
:100B0000DF93CDB7DEB769970FB6F894DEBF0FBE9F
:100B1000CDBF182F81E49CE49A8389831B8380E0F6
:100B200096E09D838C831E821F8218861986809191
:100B30002806909129069827892798279B878A87D6
:100B400080912C0690912D069827892798279F87BA
:100B50008E8780912E0690912F06982789279827B7
:100B6000998B888B809130068A8B6B8BBE01625F7C
:100B70007F4F9E012C5E3F4F90E080E0FB01419152
:100B8000BF01840F911DE217F307C1F7982789274A
:100B900098279D878C878CE591E09D8B8C8B80912D
:100BA000170790911807A0911907B0911A078E8B1B
:100BB0009F8BA88FB98F40EA5FE08AEF96E00E9492
:100BC000D90243E150E0BE016F5F7F4F8AEF96E0AC
:100BD0000E948F028AEF96E00E94CE0265EC71E0DF
:100BE0008DE396E00E943103412F50E070E060E019
:100BF0002AE08DE396E00E9440036EE571E08DE30C
:100C000096E00E94310369960FB6F894DEBF0FBEDE
:100C1000CDBFDF91CF911F9108950F931F93CF9375
:100C2000DF93CDB7DEB763970FB6F894DEBF0FBE84
:100C3000CDBF00912A0610912B060115110509F46C
:100C40006CC083E0000F111F8A95E1F781E49CE4FA
:100C50009A83898388E08B83902F812F9D838C8357
:100C60001E821F8218861986809128069091290677
:100C70009827892798279B878A87E8E2F2E090E007
:100C800080E09F01285232402017310720F4219143
:100C9000820F911DF6CF9827892798279D878C87EB
:100CA0008CE591E09F878E878091170790911807B8
:100CB000A0911907B0911A07888B998BAA8BBB8BCF
:100CC00040EA5FE0BE01625F7F4F8AEF96E00E94DC
:100CD000D9024DE050E0BE016F5F7F4F8AEF96E092
:100CE0000E948F02A80168E272E08AEF96E00E94FB
:100CF0008F028AEF96E00E94CE0269ED71E08DE3EB
:100D000096E00E94310380912A0690912B060E9462
:100D1000E90310922B0610922A0663960FB6F894F8
:100D2000DEBF0FBECDBFDF91CF911F910F91089510
:100D3000CF93DF93EC0143E050E066E171E00E9465
:100D4000A60A21E0892B59F043E050E06AE171E006
:100D5000CE010E94A60A21E0892B09F020E0822F13
:100D6000DF91CF910895CF93DF93EC0143E050E002
:100D700062E171E00E94A60A892B51F143E050E044
:100D80006EE071E0CE010E94A60A892B09F143E0D2
:100D900050E066E071E0CE010E94A60A892BC1F006
:100DA00043E050E06AE071E0CE010E94A60A892B80
:100DB00079F043E050E062E071E0CE010E94A60AC3
:100DC00021E0892B09F020E0822FDF91CF91089557
:100DD00021E0FACFEF92FF920F931F93CF93DF930F
:100DE000C0912A06D0912B06E8E2F2E030E020E044
:100DF0002C173D070CF05DC0A081B181BA27AB274D
:100E0000BA278A179B0731F5A281B381BA27AB278E
:100E1000BA276A177B07F1F48A01E90133E0CC0FA6
:100E2000DD1F3A95E1F7CE01845D9D4F7C01CA013B
:100E30000E94B306882391F084E0F801D701019065
:100E40000D928A95E1F7DF91CF911F910F91FF905D
:100E5000EF9008952F5F3F4F3896CACFC7010E9489
:100E6000B306882329F0C8010E9498068111EBCFB0
:100E7000C7010E9498068823F9F2C8010E949806CB
:100E80008823D1F243E050E0B801C7010E94A60ACE
:100E9000892BC9F2C85DDD4F809102019091030159
:100EA000A0910401B09105018C839D83AE83BF8323
:100EB000CACFC038D10539F2DE0123E0AA0FBB1F2B
:100EC0002A95E1F7FD01E85DFD4F982789279827CE
:100ED0009183808376276727762773836283A45D57
:100EE000BD4F84E0FA0101900D928A95E1F72196B9
:100EF000D0932B06C0932A06A6CF8F929F92AF92D3
:100F0000BF92CF92DF92EF92FF920F931F93CF93F6
:100F1000DF93CDB7DEB7CC5DD5400FB6F894DEBF1A
:100F20000FBECDBF8AEF96E00E9455021816190633
:100F3000D4F064E170E080E090E00E94B100C4521F
:100F4000DA4F0FB6F894DEBF0FBECDBFDF91CF9161
:100F50001F910F91FF90EF90DF90CF90BF90AF90D7
:100F60009F908F9008954CED55E0CE0101966C0155
:100F7000BC018AEF96E00E94FF010D9704F389817E
:100F80009A8181349C44D9F60C811D811027012758
:100F90001027F601F12CE12CCF018C199D09801747
:100FA000910728F48585E80EF11C3196F5CFBB80BA
:100FB000CC84DD84DC24CD24DC24CE14DF0409F4CD
:100FC00040C067EF71E08DE396E00E9431034B2D46
:100FD00050E070E060E02AE08DE396E00E9440037C
:100FE0006AE072E08DE396E00E943103A80170E0B0
:100FF00060E02AE08DE396E00E94400363E172E046
:101000008DE396E00E943103A60170E060E02AE0E3
:101010008DE396E00E9440036DE172E08DE396E07F
:101020000E943103A70170E060E02AE08DE396E0C2
:101030000E9440036EE571E08DE396E00E9431036B
:101040007ECFF3E0BF127BCF0930110508F477CFD4
:101050008A894E855F8554274527542728893989F1
:10106000322723273227CB88DC88DC24CD24DC24DC
:10107000AD88BE88BA24AB24BA24D0923306C0927D
:101080003206B0920101A092000150932D064093C8
:101090002C0630932F0620932E0690E09093310675
:1010A000809330060950110910922B0610922A06DF
:1010B0004E0127E1820E911CF12CE12CE016F10685
:1010C0000CF080C0F40181914F01FFEFEF1AFF0A8D
:1010D0008B3219F08D3209F04DC0209130063091DD
:1010E00031068B32B9F4C901019683709927909328
:1010F000310680933006809130069091310621159B
:10110000310559F48130910529F1039781F54EE0BD
:1011100051E022C0C9010396E8CF2130310541F4E6
:1011200082309105A1F3892B11F54AE051E014C0FA
:101130002230310541F483309105B9F30197B9F4B8
:1011400046E051E009C02330310589F40097C1F32E
:10115000029769F442E151E060912E0670912F06EA
:1011600080912C0690912D060E94EA06A7CF42E0BE
:1011700051E0F2CF863409F0A1CF209130063091B2
:1011800031064AE151E020FF02C046E151E0809182
:101190002C0690912D0660912E0670912F06211538
:1011A0003105A9F46150710990932D0680932C06A6
:1011B00070932F0660932E068436910518F46E31D5
:1011C000710590F00E940D06B70189E018C021302A
:1011D000310511F40196E8CF2230310519F46F5F23
:1011E0007F4FE2CF0197E0CF8C159D0524F08A1543
:1011F0009B050CF4B9CF0E940D06B70186E00E9452
:101200007E059DCE1F920F920FB60F9211242F9341
:101210003F938F939F93AF93BF93809135069091A7
:101220003606A0913706B09138063091340623E097
:10123000230F2D3758F50196A11DB11D20933406BB
:101240008093350690933606A0933706B093380600
:101250008091390690913A06A0913B06B0913C06E8
:101260000196A11DB11D8093390690933A06A09373
:101270003B06B0933C06BF91AF919F918F913F91F8
:101280002F910F900FBE0F901F90189526E8230FF7
:101290000296A11DB11DD2CF1F920F920FB60F92D1
:1012A00011242F933F934F935F936F937F938F936B
:1012B0009F93AF93BF93EF93FF938DE396E00E94CC
:1012C0006101FF91EF91BF91AF919F918F917F91BC
:1012D0006F915F914F913F912F910F900FBE0F90A3
:1012E0001F9018951F920F920FB60F9211242F93F3
:1012F0008F939F93EF93FF93E0914D06F0914E06ED
:101300008081E0915306F091540682FD1BC09081CC
:10131000809156068F5F8F7320915706821741F098
:10132000E0915606F0E0E35CF94F958F8093560606
:10133000FF91EF919F918F912F910F900FBE0F9082
:101340001F9018958081F4CFEDE3F6E013821282AE
:1013500048EE53E060E070E0448355836683778312
:1013600082E291E09183808385EC90E09587848789
:1013700084EC90E09787868780EC90E0918B808B5F
:1013800081EC90E0938B828B82EC90E0958B848B48
:1013900086EC90E0978B868B118E128E138E148EB6
:1013A000EAEDF6E08CE591E091838083128213826E
:1013B00014821582E8EEF6E0918380831282138214
:1013C00014821582E0EEF6E091838083128213820C
:1013D00014821582EEEEF6E09183808312821382EE
:1013E00014821582E4EFF6E09183808312821382E7
:1013F00014821582E1E2F7E09183808312821382E6
:1014000014821582EBE1F7E091838083A0ECA28344
:1014100038EA338328E32483BBE6B583E5E1F7E0CC
:1014200091838083A2833383248328E62583EAEF94
:10143000F6E013821282448355836683778324E324
:1014400031E03183208397878687108A118A128A38
:10145000138A84E0808F0895789484B5826084BD77
:1014600084B5816084BD85B5826085BD85B58160A8
:1014700085BD80916E00816080936E001092810026
:1014800080918100826080938100809181008160E1
:1014900080938100809180008160809380008091A2
:1014A000B10084608093B1008091B000816080932E
:1014B000B00080917A00846080937A0080917A00F5
:1014C000826080937A0080917A00816080937A00B4
:1014D00080917A00806880937A001092C1000E9407
:1014E0003C04C0E0D0E00E947D072097E1F30E9419
:1014F0004D018823C1F30E940000F5CFA1E21A2E0E
:10150000AA1BBB1BFD010DC0AA1FBB1FEE1FFF1FA7
:10151000A217B307E407F50720F0A21BB30BE40BF7
:10152000F50B661F771F881F991F1A9469F760953E
:101530007095809590959B01AC01BD01CF010895F8
:10154000EE0FFF1F0590F491E02D0994FB01DC01E3
:1015500004C08D910190801921F441505040C8F78A
:10156000881B990B0895F894FFCF6300E2958B00D8
:10157000E2949700E2949B00E2949300E2948F003F
:10158000E2948100E2948300000000008301E30004
:101590001001D00141011F01330100000000B80219
:1015A0008F022E03F201FE023802FC010503FD0248
:1015B000D9022104CE025502FF01270317031303AA
:1015C000F001000000008C030D0A00506C6F747471
:1015D0006572207374617274756A65202E2E2E00F8
:1015E000426C6164207374617274752055445000BC
:1015F0004C4F47494E5F524551207779736C616E6D
:10160000790050727A79706973616E65204944205F
:101610003D20004272616B204C4F47494E5F414371
:101620004B202D206B6F6E74756E75756A65005753
:1016300079736C616E6F2053544154555320747903
:10164000703D005779736C616E6F20494D4147457D
:101650005F444154412C2070696B73656C653A207E
:10166000005A4C5920434845434B53554D2054791B
:10167000703A2000207C204C656E3A2000207C20AF
:10168000526563763A2000207C2043616C633A20E7
:02169000000058
:107E0000112484B714BE81FFF0D085E080938100F7
:107E100082E08093C00088E18093C10086E0809377
:107E2000C20080E18093C4008EE0C9D0259A86E02C
:107E300020E33CEF91E0309385002093840096BBD3
:107E4000B09BFECF1D9AA8958150A9F7CC24DD24C4
:107E500088248394B5E0AB2EA1E19A2EF3E0BF2EE7
:107E6000A2D0813461F49FD0082FAFD0023811F036
:107E7000013811F484E001C083E08DD089C08234E0
:107E800011F484E103C0853419F485E0A6D080C0E4
:107E9000853579F488D0E82EFF2485D0082F10E0AE
:107EA000102F00270E291F29000F111F8ED06801E7
:107EB0006FC0863521F484E090D080E0DECF843638
:107EC00009F040C070D06FD0082F6DD080E0C81688
:107ED00080E7D80618F4F601B7BEE895C0E0D1E017
:107EE00062D089930C17E1F7F0E0CF16F0E7DF06D8
:107EF00018F0F601B7BEE89568D007B600FCFDCFD4
:107F0000A601A0E0B1E02C9130E011968C91119780
:107F100090E0982F8827822B932B1296FA010C0160
:107F200087BEE89511244E5F5F4FF1E0A038BF0790
:107F300051F7F601A7BEE89507B600FCFDCF97BE46
:107F4000E89526C08437B1F42ED02DD0F82E2BD052
:107F50003CD0F601EF2C8F010F5F1F4F84911BD097
:107F6000EA94F801C1F70894C11CD11CFA94CF0C13
:107F7000D11C0EC0853739F428D08EE10CD085E9AC
:107F80000AD08FE07ACF813511F488E018D01DD067
:107F900080E101D065CF982F8091C00085FFFCCF94
:107FA0009093C60008958091C00087FFFCCF809118
:107FB000C00084FD01C0A8958091C6000895E0E648
:107FC000F0E098E1908380830895EDDF803219F02E
:107FD00088E0F5DFFFCF84E1DECF1F93182FE3DFCA
:107FE0001150E9F7F2DF1F91089580E0E8DFEE27F6
:047FF000FF270994CA
:027FFE00040479
:00000001FF
